:10000000004000203D0400007D0400007F0400004B
:1000100000000000000000000000000000000000E0
:10002000000000000000000000000000810400004B
:1000300000000000000000008304000085040000B0
:100040008704000087040000870400008704000084
:1000500087040000000000008704000087040000FF
:100060008704000087040000870400008704000064
:100070008704000087040000870400008704000054
:100080008704000087040000870400008704000044
:100090008704000087040000870400008704000034
:1000A000870400008704000000000000000000003A
:1000B0000000000000000000000000000000000040
:1000C0000448054B10B5834203D0044B002B00D0ED
:1000D000984710BD3C0400203C04002000000000B4
:1000E00006480749091A8B10C90FC91810B54910DD
:1000F00003D0044B002B00D0984710BD3C040020D7
:100100003C0400200000000010B5074C2378002BB1
:1001100009D1FFF7D5FF054B002B02D0044800E0C2
:1001200000BF0123237010BD3C040020000000002C
:1001300048070000054B10B5002B03D004490548C3
:1001400000E000BFFFF7CCFF10BDC046000000007C
:100150004004002048070000402292029A1A92466A
:100160007047C046154B002B00D1114B9D46FFF741
:10017000F3FF00218B460F461148124A121A00F075
:10018000D1F90C4B002B00D098470B4B002B00D023
:1001900098470020002104000D000B4800F074F97E
:1001A00000F09EF92000290000F010F800F074F92A
:1001B00000000800000000000000000000400020D7
:1001C0003C04002058040020B904000080B582B02F
:1001D00000AF04237B6013E001227B689A4011008A
:1001E000A023DA05A323DB00D15001227B689A40CB
:1001F000A023DB051100234A99507B6801337B6003
:100200007B680F2BE8DDA023DB051F4A00219950F6
:10021000A023DA05ED23DB000021D15000233B6051
:10022000A023DA05A223DB00D2588023DB0413408D
:100230000AD1A023DB05154A9A58A023DB05E0214B
:1002400009020A4311495A50A023DA05A223DB0010
:10025000D25880239B0213400AD1A023DB05094A10
:100260009A58A023DB05E02109020A4305495A50A8
:10027000074B3B603B68013B3B603B68002BF9D17F
:10028000CEE7C0460C05000044070000040500004E
:100290001027000080B500AF00F036F8031E06D02E
:1002A000134B144A1A60144B802212021A6000F099
:1002B0006BF8031E05D08023DA05C123DB00012182
:1002C000D15000F087F8031E0ED00C4B1B68012B99
:1002D00007D00A4B0A4A1A60C046084B1B68012B1C
:1002E000FBD1084BC0221A60C046BD4680BDC04647
:1002F00004050040DFFF07C0186C004000EC06401A
:100300007593000014EC064080B500AF1A4B1B68D3
:10031000FF221340012B2AD1184B1B680F221340D8
:1003200025D1174B1B68F022134006D1154B1B68D3
:10033000F022134001D101231AE0114B1B68F02277
:100340001340102B06D10F4B1B68F022134001D134
:1003500001230DE00A4B1B68F0221340302B06D11D
:10036000084B1B68F022134001D1012300E0002359
:100370001800BD4680BDC046E00F00F0E40F00F05D
:10038000E80F00F0EC0F00F080B500AF0D4B1B68DC
:10039000FF221340012B11D10B4B1B680F2213407E
:1003A0000CD10A4B1B68F0221340402B06D1084B9E
:1003B0001B68F022134001D1012300E00023180044
:1003C000BD4680BDE00F00F0E40F00F0E80F00F044
:1003D000EC0F00F080B500AF144B1B68FF221340F8
:1003E000012B1ED1124B1B680F22134019D1114B48
:1003F0001B68F0221340A02B06D10F4B1B68F02284
:10040000134001D101230DE00A4B1B68F022134079
:10041000D02B06D1084B1B68F022134001D10123D9
:1004200000E000231800BD4680BDC046E00F00F08C
:10043000E40F00F0E80F00F0EC0F00F003210A4891
:1004400002680A430260094802680A4302600849D8
:10045000084A094B9B1A03DD043BC858D050FBDC0B
:10046000FFF718FFFFF77EFE24050040540500400B
:1004700054070000000000203C040020FEE7FEE7D7
:10048000FEE7FEE7FEE7FEE710B5010000230022CD
:10049000002000F09BF810BD10B50021040000F012
:1004A000D9F8044B1868C36B002B00D09847200084
:1004B00000F03AF94407000070B5074D074C641B83
:1004C000A41005D0013CA300EB589847002CF9D1AB
:1004D00000F032F970BDC046380400203C04002012
:1004E00070B50C4D0C4E761BB61005D0002408CD0F
:1004F00001349847A642FAD100F018F9074D084E8A
:10050000761BB61005D0002408CD01349847A642CA
:10051000FAD170BD300400203004002030040020E7
:1005200038040020F0B5050083074AD0541E002A85
:1005300044D0CEB20300032202E00135013C3DD39A
:1005400001332E701342F8D1032C2FD9FF220A4019
:10055000150215432A0415430F2C35D92700103FE7
:100560003F093E01B4461E001A001036664415606D
:1005700055609560D5601032B242F8D10F260C223A
:1005800001373F012640DB193700224217D03E1FBA
:10059000B608B400A4461A001C1D644420C2A2423E
:1005A000FCD103240136B6009B193C40002C05D039
:1005B000C9B21C19197001339C42FBD1F0BD340043
:1005C000F4E714000300BFE72700E0E7F0B5C646F4
:1005D00000B51F4C82B024680194A424019D6400DE
:1005E0002D59002D2BD06C681F2C2EDC002809D132
:1005F0000020631C0234A4006B60615102B004BC93
:100600009046F0BD8827A600AE19F2510137FF379A
:10061000BC460122AC446746A2403F68904617435F
:100620006246176084277F00F3510228E0D12B0037
:1006300040468D33FF331A6810431860D8E7019D98
:10064000019E4D35FF353551CDE701204042D5E7BC
:1006500044070000F0B55746DE464E4645462B4B54
:10066000E0B51B680F009A4683B00190A423524660
:100670005B00D658002E32D07468651E2FD4C42279
:10068000520091460134A4003419B144984602E066
:10069000043C013D23D3002F04D080235B00E358AA
:1006A000BB42F5D173682268013BAB4229D00023DD
:1006B0002360002AECD0736849469B460123AB4077
:1006C0000968194212D1904773685B45CED15346F1
:1006D00042469B58B342C9D1043C013DDBD203B032
:1006E0003CBC90469946A246AB46F0BD3000802106
:1006F0008D30FF3000686158184204D1019890474E
:10070000E2E77560D5E708009047DDE744070000A1
:10071000034B10B5002B02D00248FFF7B5FE10BD09
:1007200000000000B9040000FEE7C046F8B5C0466E
:10073000F8BC08BC9E467047F8B5C046F8BC08BC7B
:0C0740009E4670470800002000000000EA
:08074C000CFAFF7F0100000020
:10075400080000200000000000000000F402002057
:100764005C030020C403002000000000000000001F
:100774000000000000000000000000000000000075
:100784000000000000000000000000000000000065
:100794000000000000000000000000000000000055
:1007A4000000000000000000000000000000000045
:1007B4000000000000000000000000000000000035
:1007C4000000000000000000000000000000000025
:1007D4000000000000000000000000000000000015
:1007E4000000000000000000000000000000000005
:1007F40000000000000000000000000000000000F5
:1008040001000000000000000E33CDAB34126DE691
:10081400ECDE05000B0000000000000000000000FA
:1008240000000000000000000000000000000000C4
:1008340000000000000000000000000000000000B4
:1008440000000000000000000000000000000000A4
:100854000000000000000000000000000000000094
:0C0B84001107000035010000090100000D
:040000030000043DB8
:00000001FF
